{
    "_format": "hh-sol-artifact-1",
    "contractName": "DecentraDoc",
    "sourceName": "contracts/DecentraDoc.sol",
    "abi": [
        {
            "inputs": [],
            "stateMutability": "nonpayable",
            "type": "constructor"
        },
        {
            "anonymous": false,
            "inputs": [
                {
                    "indexed": false,
                    "internalType": "uint256",
                    "name": "id",
                    "type": "uint256"
                },
                {
                    "indexed": false,
                    "internalType": "string",
                    "name": "hash",
                    "type": "string"
                },
                {
                    "indexed": false,
                    "internalType": "string",
                    "name": "description",
                    "type": "string"
                }
            ],
            "name": "DocumentCreated",
            "type": "event"
        },
        {
            "inputs": [],
            "name": "documentCount",
            "outputs": [
                {
                    "internalType": "uint256",
                    "name": "",
                    "type": "uint256"
                }
            ],
            "stateMutability": "view",
            "type": "function"
        },
        {
            "inputs": [
                {
                    "internalType": "uint256",
                    "name": "",
                    "type": "uint256"
                }
            ],
            "name": "documents",
            "outputs": [
                {
                    "internalType": "uint256",
                    "name": "id",
                    "type": "uint256"
                },
                {
                    "internalType": "string",
                    "name": "hash",
                    "type": "string"
                },
                {
                    "internalType": "string",
                    "name": "description",
                    "type": "string"
                }
            ],
            "stateMutability": "view",
            "type": "function"
        },
        {
            "inputs": [],
            "name": "name",
            "outputs": [
                {
                    "internalType": "string",
                    "name": "",
                    "type": "string"
                }
            ],
            "stateMutability": "view",
            "type": "function"
        },
        {
            "inputs": [
                {
                    "internalType": "string",
                    "name": "_docHash",
                    "type": "string"
                },
                {
                    "internalType": "string",
                    "name": "_description",
                    "type": "string"
                }
            ],
            "name": "uploadDocument",
            "outputs": [],
            "stateMutability": "nonpayable",
            "type": "function"
        }
    ],
    "bytecode": "0x6080604052600060015534801561001557600080fd5b506040518060400160405280600b81526020017f446563656e747261446f6300000000000000000000000000000000000000000081525060009080519060200190610061929190610067565b5061016b565b8280546100739061010a565b90600052602060002090601f01602090048101928261009557600085556100dc565b82601f106100ae57805160ff19168380011785556100dc565b828001600101855582156100dc579182015b828111156100db5782518255916020019190600101906100c0565b5b5090506100e991906100ed565b5090565b5b808211156101065760008160009055506001016100ee565b5090565b6000600282049050600182168061012257607f821691505b602082108114156101365761013561013c565b5b50919050565b7f4e487b7100000000000000000000000000000000000000000000000000000000600052602260045260246000fd5b6108a58061017a6000396000f3fe608060405234801561001057600080fd5b506004361061004c5760003560e01c806306fdde03146100515780634464fe331461006f578063a5b16b2e1461008b578063c2ed2b05146100a9575b600080fd5b6100596100db565b60405161006691906105ce565b60405180910390f35b610089600480360381019061008491906104f1565b610169565b005b610093610291565b6040516100a091906105f0565b60405180910390f35b6100c360048036038101906100be919061055d565b610297565b6040516100d29392919061060b565b60405180910390f35b600080546100e89061070e565b80601f01602080910402602001604051908101604052809291908181526020018280546101149061070e565b80156101615780601f1061013657610100808354040283529160200191610161565b820191906000526020600020905b81548152906001019060200180831161014457829003601f168201915b505050505081565b600082511161017757600080fd5b600081511161018557600080fd5b600073ffffffffffffffffffffffffffffffffffffffff163373ffffffffffffffffffffffffffffffffffffffff1614156101bf57600080fd5b600160008154809291906101d290610771565b9190505550604051806060016040528060015481526020018381526020018281525060026000600154815260200190815260200160002060008201518160000155602082015181600101908051906020019061022f9291906103d1565b50604082015181600201908051906020019061024c9291906103d1565b509050507fc20a33486a75de326aca3b97ee6ac5d8bf3674981cda2e6f081bd427265b183e60015483836040516102859392919061060b565b60405180910390a15050565b60015481565b60026020528060005260406000206000915090508060000154908060010180546102c09061070e565b80601f01602080910402602001604051908101604052809291908181526020018280546102ec9061070e565b80156103395780601f1061030e57610100808354040283529160200191610339565b820191906000526020600020905b81548152906001019060200180831161031c57829003601f168201915b50505050509080600201805461034e9061070e565b80601f016020809104026020016040519081016040528092919081815260200182805461037a9061070e565b80156103c75780601f1061039c576101008083540402835291602001916103c7565b820191906000526020600020905b8154815290600101906020018083116103aa57829003601f168201915b5050505050905083565b8280546103dd9061070e565b90600052602060002090601f0160209004810192826103ff5760008555610446565b82601f1061041857805160ff1916838001178555610446565b82800160010185558215610446579182015b8281111561044557825182559160200191906001019061042a565b5b5090506104539190610457565b5090565b5b80821115610470576000816000905550600101610458565b5090565b600061048761048284610675565b610650565b90508281526020810184848401111561049f57600080fd5b6104aa8482856106cc565b509392505050565b600082601f8301126104c357600080fd5b81356104d3848260208601610474565b91505092915050565b6000813590506104eb81610858565b92915050565b6000806040838503121561050457600080fd5b600083013567ffffffffffffffff81111561051e57600080fd5b61052a858286016104b2565b925050602083013567ffffffffffffffff81111561054757600080fd5b610553858286016104b2565b9150509250929050565b60006020828403121561056f57600080fd5b600061057d848285016104dc565b91505092915050565b6000610591826106a6565b61059b81856106b1565b93506105ab8185602086016106db565b6105b481610847565b840191505092915050565b6105c8816106c2565b82525050565b600060208201905081810360008301526105e88184610586565b905092915050565b600060208201905061060560008301846105bf565b92915050565b600060608201905061062060008301866105bf565b81810360208301526106328185610586565b905081810360408301526106468184610586565b9050949350505050565b600061065a61066b565b90506106668282610740565b919050565b6000604051905090565b600067ffffffffffffffff8211156106905761068f610818565b5b61069982610847565b9050602081019050919050565b600081519050919050565b600082825260208201905092915050565b6000819050919050565b82818337600083830152505050565b60005b838110156106f95780820151818401526020810190506106de565b83811115610708576000848401525b50505050565b6000600282049050600182168061072657607f821691505b6020821081141561073a576107396107e9565b5b50919050565b61074982610847565b810181811067ffffffffffffffff8211171561076857610767610818565b5b80604052505050565b600061077c826106c2565b91507fffffffffffffffffffffffffffffffffffffffffffffffffffffffffffffffff8214156107af576107ae6107ba565b5b600182019050919050565b7f4e487b7100000000000000000000000000000000000000000000000000000000600052601160045260246000fd5b7f4e487b7100000000000000000000000000000000000000000000000000000000600052602260045260246000fd5b7f4e487b7100000000000000000000000000000000000000000000000000000000600052604160045260246000fd5b6000601f19601f8301169050919050565b610861816106c2565b811461086c57600080fd5b5056fea264697066735822122045c7bdda409a57e08a78ecb330ae57f0b852728713de181f3675e3464533a2c164736f6c63430008010033",
    "linkReferences": {},
    "deployedLinkReferences": {}
}